:1000000078FFE4B8200118F6D8F99000007F007E50
:1000100007E4F0A3DFFCDEFA75812102282C122B05
:10002000DC9001B9E06F6002EFF022022361E4FD91
:100030009001BCE060119001BFE0FE54F0FDEE5471
:100040000FF0E49001BCF0CFEDCF2202245875B23E
:100050009275B6F9E4F5B743B20143AA01022E71D5
:10006000000000022A66900244EBF0A3EAF0A3E944
:10007000F0900166E024FE601014607414700302B6
:1000800012F3240370EB122DA990015CE0604F90F5
:10009000019FE004F0E4900247F0122016C39F5045
:1000A0003A121EE4121D9C00000000EBB40110E4A3
:1000B0009001C9F0A3F09001CD7404F0E4A3F09096
:1000C0000247E0B40210E49001CBF0A3F09001CF1E
:1000D0007404F0E4A3F012212B80BF1226029001D9
:1000E0009FE0C39401408A122B539001667403F081
:1000F00090015CE07003021071E4900247F012205E
:1001000016FBC39F40030211D3122020F583E47530
:10011000F001121C6475F02FEF122025121ED76417
:10012000014E700B121E22FF121FF5F583802B1259
:100130001FB7121FF9F583C083C082121E31FF90D2
:100140000247E0121EE6121F00FBEF2BFFEE3AFE05
:10015000ED39FDEC38FCD082D083121D90121E3C8C
:10016000EE121FECFB121E23FF75F022EB121E8114
:10017000121EDE1220D8FF75F02FEB121F26F5831A
:10018000EE121FECFB701CE0FF1220DF121F417506
:10019000F022EF121EE91220D8241EFFE43E900246
:1001A0004E801875F022EB121EE91220D8FF900243
:1001B0004E122094EB1220DFF583EEF0A3EFF090C7
:1001C0000247E0121EE6121D9C0000000012212BC7
:1001D0000210FEE490015CF0C3900084E0940A9069
:1001E0000083E0940050030212EDE4900247F01205
:1001F0002016FBC39F40030212BE75F02FEBA42410
:100200007FF582E5F03400F583121D9C00000000AC
:1002100075F02FEBA42493F582E5F03400121F4112
:10022000121FB7122025121ED7FBCAEECAE4F9F836
:10023000121FB7121FF9121E2FFF121CCC121F9291
:10024000248BF582E5F03400122132121FA9121F0F
:1002500041ED121FF6F583121D9C00000000900274
:1002600047122020121F4175F02FEF1220A1E4F059
:1002700075F022EF121F60E4F075F022EFA4242243
:10028000F582E5F03400F583E4121FBF7405F075C4
:10029000F022EFA42424F582E5F03400F583740AFB
:1002A000F075F02FEF121F6C740AF0EF121E23FF8F
:1002B000122041F583121D9012212B0211EF9000A4
:1002C00002E075F00AA4900160F043A9089001666D
:1002D0007404F0E4FF122D5D9001A0E07002A3E031
:1002E00060057F09122D5D1226077F002212260766
:1002F000021071122EB390015CE070030210719035
:100300000160E0D394004006E014F002173AE49054
:100310000247F0122016F9C39F400302173A75F006
:1003200022E9121E811220D8FBCAEECA75F022E91A
:10033000121EE91220D8C39BFFEE9A90024AF0A346
:10034000EFF0E9700302150C1219E0C39FEC9E5008
:1003500024121F587401121FBF7405F075F022EFAC
:10036000121E26FF75F022EB121E81121D9075F0F1
:100370002FEB0213E8121F58E0607675F022EF129F
:100380001EF5FB75F022EF121E26FFC3121D6C90A6
:100390000247E0FF75F0225019121EF5FB75F0229E
:1003A000EF121E26121FD012213A121EF51221D072
:1003B0008028121EE9121F00FB75F022EF12204860
:1003C000121E2F121FD0122176122041121E2FC38F
:1003D0009BFFEE9AFEED99FDEC98FC900247E0122F
:1003E0001E7E121D90121FB7122052121F411221A1
:1003F00083900247E0FB75F022122037121E4D1247
:100400002094122EEC900247E0FB75F002A412211A
:100410005E12200FD39FEC9E50030214ED121E5665
:1004200012218AFCFD75F022EB121E81121F00FBC7
:10043000D3121D6C12213A405A121E81C083C08211
:10044000121E31FFECC0E0EDC0E0EEC0E0EFC0E016
:10045000900247E0121E57E0FEA3E0FBCAEECAE49A
:1004600012213A122037121E2FC39BFFEE9AFEED87
:100470009400FDEC9400121FDB122176D0E0FFD037
:10048000E0FED0E0FDD0E0FC122116ED99FDEC98E5
:100490000214D9121E81C083C082121F00FBE8C063
:1004A000E0E9C0E0EAC0E0EBC0E0900247E0FB1208
:1004B0001E5712218A75F022EB121E81121F0012A4
:1004C0002115E499FDE4121FDAD0E0FBD0E0FAD068
:1004D000E0F9D0E0F8EB1221D0FCD082D083121DDD
:1004E00090121FB7122052121F41122183121F585F
:1004F000E06019121FC0E0D3940012213A400812A4
:100500001FC4E014F08005121F60E4F0121F8A126D
:10051000205312216775F02FED122052121ED7D3EF
:10052000940AEE64809480400F121E66C083C082DD
:10053000121E311221AD802C121FB7122052121E32
:10054000D7C394F6EE6480947F5021121E66C08358
:10055000C082121E31C39401FFEE9400FEED9400A0
:10056000FDEC9400FCD082D083121D90121E3CE062
:10057000FCA3E0FDC3EF121FE5700302160B121976
:10058000E0C39FEC9E5026122142501575F022EBDD
:10059000121E44EE121FECFF75F02F121F6C740A2E
:1005A000F0900247E0121F35122183803790024AF3
:1005B000E0FEA3E0FF122EEC75F008121F95243226
:1005C000F582E5F03401F583E0FAA3E0C39FEA9EEB
:1005D000401275F02FED1220ADE06008121E3CEEC7
:1005E000F0A3EFF0900247E0FF75F02F1220ADE08E
:1005F0006019121F7AE0D39400121FB74008121F2F
:100600007EE014F080051220ADE4F0121F8A122063
:10061000F11221671220EC121ED7D3940AEE6480E7
:1006200094804010121F3075F02FEF121E5AE4759F
:10063000F001801E1220EC121ED7C394F6EE6480E7
:10064000947F5011121F3075F02FEF121E5A74FF55
:10065000F5F0121C64900247E0FF121F2312200FD6
:10066000FD75F02FEF121E5AE0FEA3E0C3121FE546
:10067000FF607912211E121ED7D3940FEE6480946E
:10068000804022121FB71220A17401F012214250A3
:100690001275F02FEF121E5AE0FCA3E0FD121F228C
:1006A000121F508031900247E0FF12211EF583E0B7
:1006B000FCC3EC64809480502B90024BE0940012B9
:1006C0002143401275F02FEF121E5AE0FCA3E0FD0B
:1006D000121F22121F50121FB7122060121F411248
:1006E00021838008121FB71220A1E4F0121F8A1282
:1006F000206112216712205C121ED7D394FAEE6497
:10070000809480400B121F0BF583E475F001801973
:1007100012205C121ED7C39406EE6480947F500CA6
:10072000121F0BF58374FFF5F0121C64900247E072
:10073000FF1226BA12212B021313E4900247F01283
:100740002016FEC39F40030218E9EE1220DF12209C
:100750000FFD900090E02DFD90008FE03CFCEE122C
:1007600020CB121F50900247E0FF1220CB12200F27
:10077000FD121F22121ED7C39DFFEE9CFE121F9278
:1007800012212212213275F02FED121E5A12218AE7
:10079000FCFD900247E0121E7E121F00FBC3121DDB
:1007A0006C5003021845900247E0FB121E7E122097
:1007B000D82400FFEE3404FE121E5612209490023C
:1007C00047E0FD1220FA12213275F022ED121E814F
:1007D000A3A3E0FEA3122019FD121E57E0FAA3E026
:1007E000122115121FA9F583EE121FECFF1221B979
:1007F00075F012121EB9121ECFD39DEE9C900247C7
:10080000E0401F1221B9E493FC740193121EC9C386
:100810009DFFEE9CC313FEEF13FFED2FFFEC3EFE9A
:100820008019121FAA12200FFDE4121B0E7BA47A5E
:1008300070797D783F121A03121B47900247E0122D
:100840001FAA02189F900247E0FB121E5712218A2E
:1008500075F022EB121E81121F00122115E499FD82
:10086000E498FCE4FB7A04F9F8D3121D6C9002477B
:10087000E0FF75F012402D121FAD121E77A3A3E00A
:10088000FEA3122019FD121E57E0FAA3E0C39FFF3A
:10089000EA9EFEC3E49FFF74049EFEED1220FA124E
:1008A0002132800D121FAD121F41EF1220FA121FCC
:1008B00041900247E0FB121E23FF75F022EB12204D
:1008C00048F583121EDE121D9C0000000075F02208
:1008D000EBA4240FF582E5F03400F583121D9C0093
:1008E00000000012212B02173F900118E0541F90C6
:1008F00001C9F0900118A3E09001CAF090012AE02C
:10090000541F9001CBF090012AA3E09001CCF0900D
:100910000041E0541F9001CDF0900041A3E0900110
:10092000CEF0900063E0541F9001CFF0900063A3DD
:10093000E09001D0F01226029001A0E07002A3E046
:10094000600302107112276812101E1229B4900160
:1009500066EFF0640460030219DD900001E0FF120D
:1009600020B9EF121C30900001E0FED39410402912
:100970001220B9121BC8647E701C9001BFE04408AD
:10098000F09001A4E0600CE4F0C2940000000000CC
:1009900000D2947F01227F0022EEC39410500812EF
:1009A00020B97401121C0E9001BFE054F0F09000C9
:1009B00001E0FDB401079001BFE04401F0EDB40295
:1009C000079001BFE04402F09001A4E0700C04F035
:1009D000C294000000000000D2947F01227F002218
:1009E00090024AE0FEA3E0FF122EEC900247E0FBEB
:1009F00075F008A42432F582E5F03401F583E0FCBB
:100A0000A3E022EC4D6011E8497017ED33EC33049C
:100A1000600DE4FCFFFEFD22E933E8330470F802C8
:100A20001BB3121B7E58046009E4CC2481500628B5
:100A30005009021BBD284003021BBAC0E0EB4A70FC
:100A400044B98006D0E0FB021BA9EF4E701CBD80AC
:100A500008EBFFEAFEE9FD80EBE98DF0A4FEE5F08E
:100A6000021AECE9CDF9EAFEEBFFEF89F0A4FCE510
:100A7000F0CE89F0A42EFFE435F0CD89F0A42DFE50
:100A8000E435F08067EF4E7005BD80D780C3EF8BF3
:100A9000F0A4ACF0EE8BF0A42CFCE435F0F8EF8A77
:100AA000F0A42CE5F038FCE433CB8DF0A42CFCE56D
:100AB000F03BF8EE8AF0A42CFCE5F038F8E433CFF4
:100AC00089F0A42CFCE5F038CF3400CE89F0A42FB7
:100AD000FFE5F03EFEE433C98DF0A42EFEE5F039CB
:100AE000CD8AF0A42FFFE5F03EFEE43DFD33D0E0DB
:100AF000FB50070BBB000F021BBDEC2CFCEF33FFC0
:100B0000EE33FEED33FD021B9575F020800E75F07F
:100B100010800575F0087D007E007F003392D5308F
:100B2000D503121D5EEC334010EF33FFEE33FEEDC4
:100B300033FDEC33FCD5F0ED22E5F0247EA2D51395
:100B4000CC92E7CDCEFF22EDD2E7CD33EC3392D578
:100B500024814006E4FFFEFDFC22FCE4CFCECDCC98
:100B600024E0501174FF80EDC3CC13CCCD13CDCE57
:100B700013CECF13CF0470F030D5DE021D5EE9D264
:100B8000E7C933E833F892D5EDD2E7CD33EC33FC47
:100B90005002B2D522EC30E7100FBF000C0EBE00A1
:100BA000080DBD00040BEB6014A2D5EB13FCED9215
:100BB000E7FD2274FFFCFDFEFF22E480F8A2D5745D
:100BC000FF13FC7D80E480EFBB010689828A83E00D
:100BD000225002E722BBFE02E32289828A83E49349
:100BE00022BB010CE58229F582E5833AF583E022F8
:100BF0005006E92582F8E622BBFE06E92582F8E2E6
:100C000022E58229F582E5833AF583E49322BB014C
:100C10000989828A83F8E028F022500327F722BB53
:100C2000FE05F8E328F3228A838982F8E4932822D8
:100C3000BB010689828A83F0225002F722BBFE01A3
:100C4000F322F8BB010DE58229F582E5833AF583AD
:100C5000E8F0225006E92582C8F622BBFE05E92508
:100C600082C8F222C5F0F8A3E028F0C5F0F8E582CA
:100C7000158270021583E038F022A3F8E0C5F02554
:100C8000F0F0E582158270021583E0C838F0E822A2
:100C900075F008758200EF2FFFEE33FECD33CDCC1B
:100CA00033CCC58233C5829BED9AEC99E58298409E
:100CB0000CF582EE9BFEED9AFDEC99FC0FD5F0D67B
:100CC000E4CEFBE4CDFAE4CCF9A88222B800C1B9A5
:100CD0000059BA002DEC8BF084CFCECDFCE5F0CBE3
:100CE000F97818EF2FFFEE33FEED33FDEC33FCEB1C
:100CF00033FB10D703994004EB99FB0FD8E5E4F9D7
:100D0000FA227818EF2FFFEE33FEED33FDEC33FCC3
:100D1000C933C910D7059BE99A4007EC9BFCE99AB7
:100D2000F90FD8E0E4C9FAE4CCFB2275F010EF2FFC
:100D3000FFEE33FEED33FDCC33CCC833C810D707FC
:100D40009BEC9AE899400AED9BFDEC9AFCE899F837
:100D50000FD5F0DAE4CDFBE4CCFAE4C8F922C3E421
:100D60009FFFE49EFEE49DFDE49CFC22EB9FF5F0DA
:100D7000EA9E42F0E99D42F0E89C45F022E8600FCF
:100D8000ECC313FCED13FDEE13FEEF13FFD8F122BD
:100D9000ECF0A3EDF0A3EEF0A3EFF022A8828583A0
:100DA000F0D083D082121DB3121DB3121DB3121DD9
:100DB000B3E473E493A3C583C5F0C583C8C582C8F3
:100DC000F0A3C583C5F0C583C8C582C822EF4E60B5
:100DD00012EF60010EEDBB010B89828A83F0A3DF65
:100DE000FCDEFA2289F05007F709DFFCA9F022BBEC
:100DF000FEFCF309DFFCA9F022F583E0FFA3E090FD
:100E00000250CFF0A3EFF075F02FEBA4248DF58204
:100E1000E5F03400F583E0FFA3E0900252CFF0A3A9
:100E2000EFF0EB75F022A42407F582E5F03400F52D
:100E300083E0FCA3E0FDA3E0FEA3E022900247E0F4
:100E4000FB75F022A42407F582E5F03400F583A3B6
:100E5000A3E0FEA3E0FFEB75F02FA4248DF582E55F
:100E6000F03400F58322900247E0FF75F02FA424B0
:100E700069F582E5F03400F583E4F0A3F0EF75F056
:100E800022A4240BF582E5F03400F58322F583E4F7
:100E900093FC740193FD75F008EFA42432F582E50C
:100EA000F03401F583ECF0A3EDF0EF25E02441F5FB
:100EB00082E43423F58375F002E493FC740193FD1E
:100EC000EFA422F583E0FCA3E0FD75F012EFA4246B
:100ED00006F582E5F03401F583E0FEA3E022121D61
:100EE00090900247E0FB75F022A42407F582E5F01C
:100EF0003400F58322A42403F582E5F03400F58361
:100F0000E0F8A3E0F9A3E0FAA3E022900247E0FFB3
:100F100075F02FA4246DF582E5F03400F583E4F03C
:100F2000A3F0EF75F02FA4248FF582E5F0340022B2
:100F3000900247E0FF75F02FA4246BF582E5F034B2
:100F400000F583E4F0A3F022244AF582E5F03401B1
:100F5000F583ECF0A3EDF022900247E0FF75F0225C
:100F6000A42421F582E5F03400F58322A42496F52B
:100F700082E5F03400F5837401F075F02FEFA424BE
:100F800097F582E5F03400F5832290024AE0FEA353
:100F9000E0FF75F02F900247E0FDA422F0A3F0A33C
:100FA000F0A3F0A3F0A3F0A322ED75F012A42406A1
:100FB000F582E5F0340122900247E075F02F22F02F
:100FC00075F022EFA42423F582E5F03400F58322A6
:100FD000C39BFFEE9AFEED99FDEC98FCE47B02FAD0
:100FE000F9F8021CCC9DFFEE9C90024AF0A3EFF0B2
:100FF000900247E022EB75F02FA4247BF582E5F008
:1010000034002275F02FA4248BF582E5F03400F52E
:1010100083E0FCA3E022900002E0FF900247E02280
:10102000E0FF75F02FA42483F582E5F0340022FF61
:10103000E4EFF075F022EBA4240BF582E5F0340028
:1010400022900247E075F022A42403F582E5F034F3
:101050000022A42469F582E5F034002275F02FED1A
:10106000A4246DF582E5F0340022902EC9F074902E
:10107000902EC3F0A3740AF022746D2BF582E43431
:1010800001F58322FDECF0EDA3F0900252E0FCA309
:10109000E0FDEC22E0FCA3E0FDC3EF9DFFEE9CFE33
:1010A00022A42495F582E5F03400F58322A4249649
:1010B000F582E5F03400F58322900244E0FBA3E0E2
:1010C000FAA3E0F922FF7808021D7D75F02FA42411
:1010D00085F582E5F0340022A3A3E0FEA3E02275AB
:1010E000F02FA42491F582E5F034002275F02FED65
:1010F000A4246BF582E5F034002275F022A4241FAD
:10110000F582E5F03400229001A6E024ADF582E4FA
:101110003401F58322FBC3EF9BFFEE9AFE2275F0AC
:101120002FA42487F582E5F0340022900247E004E2
:10113000F022F583EEF0A3EFF022900247E075F085
:101140002222C390024AE064809480222444F582E3
:10115000E5F03401222450F582E5F03401222456D2
:10116000F582E5F0340122F583EE8FF0021C64E095
:10117000FEC8EFC80822C8ECC8C9EDC9CAEECACB80
:10118000EFCB2290024AF0A3F022E0FEA3E0FFE4BE
:101190002225E025E02477F582E4340122E4900161
:1011A000B4F0A3F022E4EFF075F022EB222401FF6B
:1011B000E43EFEE43DFDE43C2225E02421F582E40A
:1011C0003423F58322FFEFF0900250E0FCA3E022ED
:1011D0002FFFEA3EFEE93DFDE83C2290016CE0FF76
:1011E00075F002A4223F3F3F3F3F3F3F3F003200A8
:1011F0000A0032177009C4006400320032000A008D
:101200000A000000000000000000000000000101D2
:10121000010D0E0F030405060708090A0B0C000157
:10122000020037003700370037003700370037003B
:1012300037003700370037003700370037003700F6
:101240003700500050005000500050005000500037
:10125000500050005000500050005000500050000E
:1012600050001E001E001E001E001E001E001E005C
:101270001E001E001E001E001E001E001E001E007E
:101280001E002D002D002D002D002D002D002D0005
:101290002D002D002D002D002D002D002D002D00E6
:1012A0002D005000500050005000500050005000E1
:1012B00050005000500050005000500050005000AE
:1012C00050006900690069006900690069006900EF
:1012D00069006900690069006900690069006900C6
:1012E0006900370037003700370037003700370014
:1012F0003700370037003700370037003700370036
:1013000037002D002D002D002D002D002D002D006B
:101310002D002D002D002D002D002D002D002D0065
:101320002D00C800C800C800BE00BE00BE00BE0040
:10133000BE00BE00BE00BE00BE00BE00BE00BE00BD
:10134000BE00140014001400140014001400140053
:1013500014001400140014001400140014001400ED
:1013600014C0E0C0F0C083C082C0D0E8C0E0E9C0D3
:10137000E0EAC0E0EBC0E0ECC0E0EDC0E0EEC0E0D1
:10138000EFC0E0D2AF90015CE06003022435900230
:1013900056742EF0A3E4F0122107E090016BF09058
:1013A000015DE004F0E05407F0E09021E593902E19
:1013B000CAF090016BE0FD75F002A4FFAEF0900260
:1013C00057E02FF0900256E03EF0ED9022119390FE
:1013D00001A5F0121EE6C083C082121F00FBE8C008
:1013E000E0900256E475F002121C7A85F082121E1B
:1013F000D7FFE4FCFDD0E0F8EB2FFFEA3EFEED392D
:10140000FDEC38FCD082D083121D9090015DE0701D
:10141000219001A6E004F0E0FF900002E0FEEF8ED4
:10142000F084AFF09001A6EFF0700790015C04F03B
:101430008003122607D0E0FFD0E0FED0E0FDD0E030
:10144000FCD0E0FBD0E0FAD0E0F9D0E0F8D0D0D08A
:1014500082D083D0F0D0E032C0E0C083C082C0D060
:10146000E8C0E0E9C0E0EAC0E0EBC0E0EFC0E0D2F5
:10147000AFE5DB30E415E5DB30E10280259001BE0D
:10148000E5DFF090023FE4F002251CE5DB30E508E3
:10149000122EF89001BC8029E5DB30E117E5DB3046
:1014A000E07A122D3604F08F82758300121BE1F56D
:1014B000DF02251C90023FE0700DA3E5DFF09002F3
:1014C0003F7401F002251C900240E090287193FFC8
:1014D000B4FF0E9001BEE5DFF0900240E004F08022
:1014E00035EF640F900241701E122D39122D5454A5
:1014F0000F121C30122D3604F0122D54FFE5DF546C
:10150000F04F121C30800F122D3904F08F8275833A
:1015100000E5DF121C429001BDE004F075DBFFD056
:10152000E0FFD0E0FBD0E0FAD0E0F9D0E0F8D0D096
:10153000D082D083D0E0329001D2E0FE6410705BA4
:10154000FF900002E0FDEFC39D40030225F8EF2568
:10155000E024C1F582E43422121EB4121F48EF25A4
:10156000E024A1F582E43422121EB412214C121F91
:1015700050EF25E024E1F582E43422121EB412215A
:1015800055121F50EF25E02401F582E43423121E8A
:101590008D12215E121F500F022541EE64207061F2
:1015A000FF900002E0FEEFC39E504DEF25E0244186
:1015B000F582E43422121EB4121F48EF25E02421E4
:1015C000F582E43422121EB412214C121F50EF2572
:1015D000E02461F582E43422121EB4122155121F58
:1015E00050EF25E02481F582E43422121E8D122171
:1015F0005E121F500F0225A190014AA3E09001C383
:10160000F022E490015CF0122107E0FFC39408503F
:1016100042902EC6E054FCF0E04401F0902EC574D8
:1016200001F0C083C08212216F8002C333D8FCD086
:1016300082D083F0902ECD7401F0C083C08212213D
:101640006F8002C333D8FCD082D083F0902EC07458
:10165000C1F02274F82FFF902EC6E054FCF0E04455
:1016600002F0902EC57401F0C083C08212216F80F9
:1016700002C333D8FCD082D083F0902ECE7401F018
:10168000C083C08212216F8002C333D8FCD082D0C5
:1016900083F0EFB40505743912206AEFB4060574BF
:1016A0003F12206AEFB4070B902EC97432F074A079
:1016B000122070902EC074C2F022CBEFCB121E56B7
:1016C000E0FEA3E0FFEB122003C39FFFEC9E90021D
:1016D00054F0A3EFF0EB64017044EB121F23121DD2
:1016E000F91220C590020F1221A5121EE9A3A3A38F
:1016F000E090021012202F121E2F1220C5E490023B
:1017000011EFF0EB121E7EA3A3A3E09002121221B0
:10171000C5900213122084900215F0EDA3F0EB6443
:10172000027044EB1220CB121DF91220C590021753
:101730001221A5121EE9A3A3A3E090021812202FE4
:10174000121E2F1220C5E49002191221A6121E812A
:10175000A3A3A3E090021A1221C590021B122084B9
:1017600090021DF0EDA3F022E4FFFE900250F0A3E2
:10177000F0A3F0F9FDFC900002E0FBECC39B50529B
:10178000EC121FAAF583E0FAA3E0FBD3940FEA94CE
:10179000004006900251E004F0D3EB942DEA94004F
:1017A0004006900252E004F0D3EB9437EA940040F4
:1017B0000109D3EB9441EA940040010DD3EB9FEA79
:1017C0009E400C900250ECF075F012121ECEFF0CF1
:1017D00080A4900251E09001A7F0900252E09001A5
:1017E000A8F0A3E9F0A3EDF0900250E090016CF0B6
:1017F00022022A14E493A3F8E493A34003F68001A1
:10180000F208DFF48029E493A3F85407240CC8C33A
:1018100033C4540F4420C8834004F456800146F674
:10182000DFE4800B0102040810204080902C1AE4B1
:101830007E019360BCA3FF543F30E509541FFEE4D2
:1018400093A360010ECF54C025E060A840B8E49394
:10185000A3FAE493A3F8E493A3C8C582C8CAC583D6
:10186000CAF0A3C8C582C8CAC583CADFE9DEE7805B
:10187000BE0FFFFF00000000000000FFFFFFFFFFA2
:10188000FFFFFFFF0000000000000000000000005C
:101890000000000000000000000000000000000048
:1018A0000000000000000000000000000000000038
:1018B0000000000000000000000000000000000028
:1018C0000000000000000000000000000000000018
:1018D0000000000000000000000000000000000008
:1018E00000000000000000000000000000000000F8
:1018F00000902EC0E4F0902ECB74F7F0902F58E0BB
:10190000540F24F0902EC8F0902ECC7448F0902EF6
:10191000C97429F0A3743FF0902E407481121F9C6B
:10192000F0A3F0A304121F9C7402F0A37481F09042
:101930002EC67415F0902EC17490F0A37401F0A31C
:101940007490F0A3740AF043E310122D8390000208
:10195000EFF022900250EFF0C3940A5054E0FF24BD
:101960006D12207CE0604AEF122191121EFEFB9066
:1019700001B0121E31C39BFBEE9AFAED99F9EC9877
:10198000F8900250E025E024EDF582E43421F5835F
:10199000E493FE740193FFE4FCFDC3121D6C400E42
:1019A000900250E0246D12207CE4F07F01227F0041
:1019B000227F0022122EA2EF600122122C50EF6033
:1019C00001229001B9E0248F600C24F3702A122DBB
:1019D0000C122E8A803B122E38900167E07002A311
:1019E000E070057F03122D5D900168E004F0702126
:1019F000900167E004F08019122E8A9001B9E0FF8F
:101A0000122DF47F04122953EF60061226027F0282
:101A1000227F042275200153A87F122C85122EE00C
:101A2000122AB812104E122ED3122E1743A880126B
:101A3000102EEF24E0600E24A0601024707018C2F5
:101A400083C2828012D283D282800C122EC3758709
:101A500003758601122EE01225377B017A02795A2E
:101A6000121066EF80C9C0E0C0F0C083C082C0D051
:101A7000E8C0E0ECC0E0EDC0E0EEC0E0EFC0E0D2D6
:101A8000AF900163E004F0C3940A4012E4F09001C7
:101A9000B0121E311221ADFC9001B0121D90D0E0A9
:101AA000FFD0E0FED0E0FDD0E0FCD0E0F8D0D0D018
:101AB00082D083D0F0D0E0329002447410F0A3E4DE
:101AC000F0A3743FF0A374FFF0E4FDFCF99002442E
:101AD000E0FEA3E02DF582EE3CF583E493FF69F987
:101AE0000DBD00010CBC2FE5BDFFE2900246E0FEFB
:101AF000A3E0F5828E83E4936970079001C07409B6
:101B0000F022E49001C0F02290014CA3E090021773
:101B1000F090014EA3E0900218F0900146A3E090EF
:101B20000219F0900148A3E090021AF0900152A32C
:101B3000E090021BF0900154A3E090021CF090236F
:101B40002374019390021DF0902325740193900259
:101B50001EF022E4900167F0A3F09001B7F0A3F02B
:101B6000900164F0A3F09001ABF0A3F09000017439
:101B70007EF012219DFB900002E0FFEBC39F501905
:101B8000121FF5F583121D9C0000000075F02FEB6D
:101B9000122025121F410B80DD22CBEFCBEBB401CD
:101BA0001B900029121E311220C59001EFEFF0901A
:101BB0000029A3A3A3E0FF9001F0EFF0EBB4021B18
:101BC00090004B121E311220C59001F1EFF09000F1
:101BD0004BA3A3A3E0FF9001F2EFF022E4900250A8
:101BE000F0122CE2EF647F60012290016AE070172E
:101BF00004F01221DB244AF582E5F03401121EC301
:101C0000C39DEE9C4011221221DB12214C121EC3F7
:101C1000C39DEE9C4001227F7E224101A400410130
:101C2000A6004101630041000000C10941016900B3
:101C3000C1084101B60041023F004102400042019B
:101C4000BA00004101BC004101BD004101BE1000CD
:101C5000D39001A1E094009001A0E094004023D330
:101C6000900165E0940A900164E09400500E9001A8
:101C700068E0940A900167E0940040061226027F13
:101C800002227F0022758A50538AEFE4F5AD75AECB
:101C9000F075AF09F5AC7589FF75911F75991FF542
:101CA0009675931F759B10F595F592F59A75800CB6
:101CB000F588F590D294227E017F607D007B017AC9
:101CC000007903121DCD122DCF9001D27410F012A5
:101CD00025379001B9747EF0900001F0E490016A1C
:101CE000F022900001E0FFC39410501DA3E0FEEF2E
:101CF000C39E5015900001E075F002A41221551208
:101D00001EC3C39DEE9C4001227F7F229000017480
:101D10007EF07F04122E939001B4E07002A3E06085
:101D2000147F02122D5D7F02122953EF60071221EA
:101D30009D90016AF022900241E0FBA3E0FAA3E04B
:101D4000F9900240E0FF22E4F5DA75DA4043DA2048
:101D500075D74022E92FF9E43AFA021BC8CBEFCB42
:101D6000EBD3940A501C122079E07016122079747B
:101D700001F09001B0121E31FFEB122191F5831298
:101D80001D9022902EC5E4F0902ECDF0A3F0FFFE22
:101D9000EF90220193600974AD2E12210DEFF00E29
:101DA0000FEFB410EBCFEECF229001667402F05328
:101DB000A87F12260743A82043A880E49001A0F042
:101DC000A3F09001A0F0A304F0E490019FF0227E24
:101DD000007F807D007B017A0179BF121DCD9001CB
:101DE000BF7408F0A304F0A37401F09001D174ABA8
:101DF000F0022B08CAEFCAEAC394105019900001F0
:101E0000E06A60127F04122D5D900001EAF09001FB
:101E1000B4E4F0A304F0229002417401F0A3740131
:101E2000F0A374BFF0122D4775D65075DA5843A948
:101E30000875B80875F808229001B4E07002A3E0B4
:101E400060147F02122D5D7F02122953EF6007128A
:101E5000219D90016AF022EF122003FDEF121E5720
:101E6000E0FEA3E0C39DFFEE9C900258F0A3EFF0CC
:101E7000229001B0121D9C000000007E007F0A7DB0
:101E8000007B017A01796D021DCDE4900167F0A31A
:101E9000F07F03EFD3940A5008746D2F12207CE476
:101EA000F0227F01122953EF60061226027F0222E0
:101EB0007F00227F09122953EF6007E49001A0F010
:101EC000A3F022E4F58D902ECBF0902ECEF0F58687
:101ED000F58F2275BA9275BEF9E4F5BF43AA0222C6
:101EE0001228F19001667401F0022CB7EE30E7077A
:101EF000C3E49FFFE49EFE22122D4775DA582200AC
:101F000000000000000000000000000000000000D1
:101F100000000000000000000000000000000000C1
:101F200000000000000000000000000000000000B1
:101F300000000000000000000000000000000000A1
:102FF0000000000000000000000000000000003998
:00000001FF
